:020000002100DD
:1001000075813FC2AF1201771201A41201F590125E
:10011000348583348582359002BC1201FAE53412AD
:1001200001B6E5351201B6742C1201CC85348385F5
:100130003582120222E5F01201B6E5831201B6E51E
:10014000821201B61201ECB2B7853483853582A3E1
:1001500085833485823512017080BCC0077F5002D0
:10016000018CC0077F2802018CC0077F1402018C1C
:10017000C0077F0A02018CC0077F0502018CC007FF
:100180007F0202018CC0077F0102018CC0E0C0F039
:1001900075F0C87472D5E0FDD5F0F8DFF3D0F0D07B
:1001A000E0D00722758921759850758DFD7400F592
:1001B00087C2AFD28E22C0E0C41201BED0E0C0839D
:1001C000C0829001DC540F93D082D083C0A8C2AC0F
:1001D000C299F5993099FDC299D0A82230313233B5
:1001E000343536373839414243444546740D31CCB5
:1001F000740A31CC22740C31CC22E493600531CCEA
:10020000A380F722C0A8C2ACC299F5993099FDC26B
:1002100099D0A822C0A8C2AC3098FDC298E599D068
:10022000A8227F007E00AD83AC82783012026A780B
:1002300031E6F5F008E6F58308E6F5822200E88B62
:10024000F0A4FBA9F0E88CF0A4C329FC740035F0FD
:10025000F9E88DF0A4C329FD740035F0F9E88EF0BB
:10026000A4C329FE740035F0FF22E4F608F608F670
:1002700008F6A900758320EC33FCED33FDEE33FE68
:10028000EF33FF758204A801E635E0D4F618D58275
:10029000F7D583E322AC83AB827E007F00758310A9
:1002A000EB33FBEC33FC7582027807E635E0D4F6DD
:1002B00018D582F7D583E98E838F822244617461D9
:0C02C00020436F756E746572203D2000B5
:00000001FF
