:020000002100DD
:1001000075813FC2AF1201E91202E8120216C31252
:100110000286B43000B430089003B012029480EE2E
:10012000B431089003B812029480E3B4320890030B
:10013000C012029480D8B433089003C8120294808D
:10014000CDB434089003D012029480C2B435089024
:1001500003D812029480B7B436089003E0120294D8
:1001600080ACB437089003E812029480A1B4380838
:100170009003F01202948096B439089003F81202AA
:1001800094808BB441089004001202948080B442A1
:1001900008900408120294210EB44308900410122F
:1001A0000294210EB44408900418120294210EB453
:1001B0004508900420120294210EB44608900428A9
:1001C000120294210E9003A8120294210EC0077F00
:1001D000500201FEC0077F280201FEC0077F140203
:1001E00001FEC0077F0A0201FEC0077F050201FE73
:1001F000C0077F020201FEC0077F010201FEC0E0CE
:10020000C0F075F0C87472D5E0FDD5F0F8DFF3D01A
:10021000F0D0E0D00722758920759850758DFD7457
:1002200000F587C2AFD28E22C0E0C4120230D0E007
:10023000C083C08290024E540F93D082D083C0A856
:10024000C2ACC299F5993099FDC299D0A82230313B
:100250003233343536373839414243444546740DDC
:10026000513E740A513E22740C513E22E4936005C3
:10027000513EA380F722C0A8C2ACC299F59930992B
:10028000FDC299D0A822C0A8C2AC3098FDC298E5A2
:1002900099D0A82278217F08E493F608A3DFF975A6
:1002A000830185218212031775830285228212033E
:1002B00017758303852382120317758304852482AF
:1002C000120317758305852582120317758306852A
:1002D00026821203177583078527821203177583F9
:1002E0000885288212031722900B07120317900922
:1002F00000120317900F00120317900A0812031739
:10030000900C0112031722900F0112031712039A87
:10031000900F0012031722D2B4D2B2C2B300000071
:1003200000000000000000000000000000000000CD
:100330000000000000E58312035EE58212035E0008
:1003400000000000000000000000000000000000AD
:1003500000000000000000D2B4D2B2D2B3227F0865
:100360003392B40000000000000000000000000014
:100370000000000000000000000000C2B200000009
:10038000000000000000000000000000000000006D
:100390000000000000D2B2DFC722E4F5F07F05D5EF
:1003A000E0FDD5F0FADFF8220000000000000000B8
:1003B0003C42464A5262423C001838381818183CF1
:1003C000003844040810207C001C22020C02221C6D
:1003D000000C1424243E0404007C404038044438BB
:1003E000000C10203C22221C007C0408102020203D
:1003F000001C22221C22221C001C22221E02041885
:10040000001C2222223E2222003C22223C22223CAC
:10041000001C22202020221C003C22222222223CDE
:10042000003E22203820223E003E2020382020207E
:00000001FF
