:020000002100DD
:1001000075813FC2AF12021C12031B120249759087
:10011000C0C31202B9B4300B9003E31202C775904A
:10012000C080EEB4310B9003EB1202C77590F980DA
:10013000E0B4320B9003F31202C77590A480D2B4DE
:10014000330B9003FB1202C77590B080C4B4340B1C
:100150009004031202C775909980B6B4350B9004D1
:100160000B1202C775909280A8B4360B900413123C
:1001700002C7759082809AB4370B90041B1202C795
:100180007590F8808CB4380B9004231202C77590D8
:10019000802111B4390B90042B1202C77590902165
:1001A00011B4410B9004331202C77590882111B429
:1001B000420B90043B1202C77590832111B4430B8C
:1001C0009004431202C77590C62111B4440B9004E9
:1001D0004B1202C77590A12111B4450B9004531224
:1001E00002C77590862111B4460B90045B1202C7BA
:1001F00075908E21119003DB1202C77590FF2111BB
:10020000C0077F50020231C0077F28020231C007B9
:100210007F14020231C0077F0A020231C0077F0546
:10022000020231C0077F02020231C0077F010202D1
:1002300031C0E0C0F075F0C87472D5E0FDD5F0F8BB
:10024000DFF3D0F0D0E0D007227589207598507583
:100250008DFD7400F587C2AFD28E22C0E0C41202B9
:1002600063D0E0C083C082900281540F93D082D0CB
:1002700083C0A8C2ACC299F5993099FDC299D0A8A3
:1002800022303132333435363738394142434445F0
:1002900046740D5171740A517122740C517122E42B
:1002A0009360055171A380F722C0A8C2ACC299F532
:1002B000993099FDC299D0A822C0A8C2AC3098FD4F
:1002C000C298E599D0A82278217F08E493F608A384
:1002D000DFF975830185218212034A758302852225
:1002E0008212034A75830385238212034A758304AD
:1002F00085248212034A75830585258212034A7577
:10030000830685268212034A758307852782120396
:100310004A75830885288212034A22900B0712032C
:100320004A90090012034A900F0012034A900A08EB
:1003300012034A900C0112034A22900F0112034A41
:100340001203CD900F0012034A22D2B4D2B2C2B32C
:10035000000000000000000000000000000000009D
:100360000000000000000000E583120391E5821206
:1003700003910000000000000000000000000000E9
:1003800000000000000000000000D2B4D2B2D2B3DE
:10039000227F083392B4000000000000000000003B
:1003A0000000000000000000000000000000C2B2D9
:1003B000000000000000000000000000000000003D
:1003C0000000000000000000D2B2DFC722E4F5F018
:1003D0007F05D5E0FDD5F0FADFF82200000000002F
:1003E0000000003C42464A5262423C00183838182D
:1003F00018183C003844040810207C001C22020C11
:1004000002221C000C1424243E0404007C404038CA
:10041000044438000C10203C22221C007C040810EC
:10042000202020001C22221C22221C001C22221E12
:10043000020418001C2222223E2222003C22223CDE
:1004400022223C001C22202020221C003C222222AE
:1004500022223C003E22203820223E003E2020382E
:0304600020202039
:00000001FF
